{
  "contractName": "ChainCommerce",
  "abi": [
    {
      "inputs": [],
      "payable": false,
      "stateMutability": "nonpayable",
      "type": "constructor"
    },
    {
      "anonymous": false,
      "inputs": [
        {
          "indexed": false,
          "name": "productName",
          "type": "string"
        },
        {
          "indexed": false,
          "name": "price",
          "type": "uint256"
        },
        {
          "indexed": false,
          "name": "seller",
          "type": "address"
        }
      ],
      "name": "NewProduct",
      "type": "event"
    },
    {
      "anonymous": false,
      "inputs": [
        {
          "indexed": false,
          "name": "userName",
          "type": "string"
        }
      ],
      "name": "NewUser",
      "type": "event"
    },
    {
      "anonymous": false,
      "inputs": [
        {
          "indexed": false,
          "name": "productID",
          "type": "string"
        },
        {
          "indexed": false,
          "name": "price",
          "type": "uint256"
        },
        {
          "indexed": false,
          "name": "sellerAddress",
          "type": "address"
        },
        {
          "indexed": false,
          "name": "buyerAddress",
          "type": "address"
        }
      ],
      "name": "NewBuy",
      "type": "event"
    },
    {
      "anonymous": false,
      "inputs": [
        {
          "indexed": false,
          "name": "productID",
          "type": "string"
        }
      ],
      "name": "ProductReceived",
      "type": "event"
    },
    {
      "anonymous": false,
      "inputs": [
        {
          "indexed": false,
          "name": "text",
          "type": "string"
        },
        {
          "indexed": false,
          "name": "value",
          "type": "uint256"
        }
      ],
      "name": "DEBUG_NUMBER",
      "type": "event"
    },
    {
      "anonymous": false,
      "inputs": [
        {
          "indexed": false,
          "name": "text",
          "type": "string"
        },
        {
          "indexed": false,
          "name": "data",
          "type": "address"
        }
      ],
      "name": "DEBUG_ADDRESS",
      "type": "event"
    },
    {
      "anonymous": false,
      "inputs": [
        {
          "indexed": false,
          "name": "text",
          "type": "string"
        },
        {
          "indexed": false,
          "name": "data",
          "type": "string"
        }
      ],
      "name": "DEBUG_STRING",
      "type": "event"
    },
    {
      "constant": false,
      "inputs": [
        {
          "name": "_productIds",
          "type": "string"
        },
        {
          "name": "_buyerEmail",
          "type": "string"
        },
        {
          "name": "_sellerAddress",
          "type": "address"
        }
      ],
      "name": "buyOffer",
      "outputs": [],
      "payable": true,
      "stateMutability": "payable",
      "type": "function"
    }
  ],
  "bytecode": "0x608060405234801561001057600080fd5b50610509806100206000396000f300608060405260043610610041576000357c0100000000000000000000000000000000000000000000000000000000900463ffffffff168063bcf6b50b14610046575b600080fd5b610106600480360381019080803590602001908201803590602001908080601f0160208091040260200160405190810160405280939291908181526020018383808284378201915050505050509192919290803590602001908201803590602001908080601f0160208091040260200160405190810160405280939291908181526020018383808284378201915050505050509192919290803573ffffffffffffffffffffffffffffffffffffffff169060200190929190505050610108565b005b7f2c3a6b3f4f694011571a41767005098aa2d2f7206530ef418e9ba34ed2a72208836040518080602001806020018381038352600e8152602001807f6275792070726f64756374206964000000000000000000000000000000000000815250602001838103825284818151815260200191508051906020019080838360005b838110156101a2578082015181840152602081019050610187565b50505050905090810190601f1680156101cf5780820380516001836020036101000a031916815260200191505b50935050505060405180910390a17fbed6b1000c49cd19c385d519b756ca35594a54df4cdbb752a940b3ae4f315a483360405180806020018373ffffffffffffffffffffffffffffffffffffffff1673ffffffffffffffffffffffffffffffffffffffff168152602001828103825260058152602001807f62757965720000000000000000000000000000000000000000000000000000008152506020019250505060405180910390a18073ffffffffffffffffffffffffffffffffffffffff166108fc349081150290604051600060405180830381858888f193505050501580156102bf573d6000803e3d6000fd5b507fa16d9f68e5de1569e7f060f22765ff600c3301d1d597699c8edd1f07cceacbfe346040518080602001838152602001828103825260118152602001807f62757965722070617965642076616c75650000000000000000000000000000008152506020019250505060405180910390a17fbed6b1000c49cd19c385d519b756ca35594a54df4cdbb752a940b3ae4f315a488160405180806020018373ffffffffffffffffffffffffffffffffffffffff1673ffffffffffffffffffffffffffffffffffffffff168152602001828103825260208152602001807f6275796572207472616e7366657265642076616c756520746f2073656c6c65728152506020019250505060405180910390a17f5879e26015a3b69f946f269a9d5a2b6b89c88e8d2e8d05e4cdc05cb9f8fd27d88334833360405180806020018581526020018473ffffffffffffffffffffffffffffffffffffffff1673ffffffffffffffffffffffffffffffffffffffff1681526020018373ffffffffffffffffffffffffffffffffffffffff1673ffffffffffffffffffffffffffffffffffffffff168152602001828103825286818151815260200191508051906020019080838360005b8381101561049b578082015181840152602081019050610480565b50505050905090810190601f1680156104c85780820380516001836020036101000a031916815260200191505b509550505050505060405180910390a15050505600a165627a7a723058203b415cf1d3860e40debc33cf4b2a19a9f04bb3ef56e941989a51d7177e5a0cf00029",
  "source": "pragma solidity ^0.4.24;\n\ncontract ChainCommerce  {\n\n    event NewProduct(string productName, uint price, address seller);\n    event NewUser(string userName);\n    event NewBuy(string productID, uint price, address sellerAddress, address buyerAddress);\n    event ProductReceived(string productID);\n\n    event DEBUG_NUMBER(string text, uint value);\n    event DEBUG_ADDRESS(string text, address data);\n    event DEBUG_STRING(string text, string data);\n\n    constructor() public { }\n\n    function buyOffer(string _productIds, string _buyerEmail, address _sellerAddress)\n    public\n    payable\n    {\n        emit DEBUG_STRING(\"buy product id\", _productIds);\n\n        // anynone can buy\n        emit DEBUG_ADDRESS(\"buyer\", msg.sender);\n        \n        // transfer from contract to buyer\n        _sellerAddress.transfer(msg.value); // TODO: retain some taxs\n\n        emit DEBUG_NUMBER(\"buyer payed value\", msg.value);\n        emit DEBUG_ADDRESS(\"buyer transfered value to seller\", _sellerAddress);\n\n        emit NewBuy(_productIds, msg.value, _sellerAddress, msg.sender);\n        \n    }\n}\n",
  "sourcePath": "/home/lucasa/Documentos/UpWork/chaincommerce-shop/contracts-chaincommerce/contracts/ChainCommerce.sol",
  "compiler": {
    "name": "solc",
    "version": "0.4.24+commit.e67f0147.Emscripten.clang"
  },
  "schemaVersion": "2.0.1",
  "updatedAt": "2018-12-07T00:16:04.336Z"
}